{
  "contractName": "MultiSigTokenWallet",
  "abi": [
    {
      "inputs": [
        {
          "internalType": "address[]",
          "name": "_owners",
          "type": "address[]"
        },
        {
          "internalType": "uint256",
          "name": "_required",
          "type": "uint256"
        }
      ],
      "stateMutability": "nonpayable",
      "type": "constructor"
    },
    {
      "anonymous": false,
      "inputs": [
        {
          "indexed": true,
          "internalType": "address",
          "name": "sender",
          "type": "address"
        },
        {
          "indexed": true,
          "internalType": "uint256",
          "name": "transactionId",
          "type": "uint256"
        }
      ],
      "name": "Confirmation",
      "type": "event"
    },
    {
      "anonymous": false,
      "inputs": [
        {
          "indexed": true,
          "internalType": "address",
          "name": "sender",
          "type": "address"
        },
        {
          "indexed": false,
          "internalType": "uint256",
          "name": "value",
          "type": "uint256"
        }
      ],
      "name": "Deposit",
      "type": "event"
    },
    {
      "anonymous": false,
      "inputs": [
        {
          "indexed": true,
          "internalType": "uint256",
          "name": "transactionId",
          "type": "uint256"
        }
      ],
      "name": "Execution",
      "type": "event"
    },
    {
      "anonymous": false,
      "inputs": [
        {
          "indexed": true,
          "internalType": "uint256",
          "name": "transactionId",
          "type": "uint256"
        }
      ],
      "name": "ExecutionFailure",
      "type": "event"
    },
    {
      "anonymous": false,
      "inputs": [
        {
          "indexed": true,
          "internalType": "address",
          "name": "owner",
          "type": "address"
        }
      ],
      "name": "OwnerAddition",
      "type": "event"
    },
    {
      "anonymous": false,
      "inputs": [
        {
          "indexed": true,
          "internalType": "address",
          "name": "owner",
          "type": "address"
        }
      ],
      "name": "OwnerRemoval",
      "type": "event"
    },
    {
      "anonymous": false,
      "inputs": [
        {
          "indexed": false,
          "internalType": "uint256",
          "name": "required",
          "type": "uint256"
        }
      ],
      "name": "RequirementChange",
      "type": "event"
    },
    {
      "anonymous": false,
      "inputs": [
        {
          "indexed": true,
          "internalType": "address",
          "name": "sender",
          "type": "address"
        },
        {
          "indexed": true,
          "internalType": "uint256",
          "name": "transactionId",
          "type": "uint256"
        }
      ],
      "name": "Revocation",
      "type": "event"
    },
    {
      "anonymous": false,
      "inputs": [
        {
          "indexed": true,
          "internalType": "uint256",
          "name": "transactionId",
          "type": "uint256"
        }
      ],
      "name": "Submission",
      "type": "event"
    },
    {
      "inputs": [],
      "name": "MAX_OWNER_COUNT",
      "outputs": [
        {
          "internalType": "uint256",
          "name": "",
          "type": "uint256"
        }
      ],
      "stateMutability": "view",
      "type": "function"
    },
    {
      "inputs": [
        {
          "internalType": "uint256",
          "name": "",
          "type": "uint256"
        },
        {
          "internalType": "address",
          "name": "",
          "type": "address"
        }
      ],
      "name": "confirmations",
      "outputs": [
        {
          "internalType": "bool",
          "name": "",
          "type": "bool"
        }
      ],
      "stateMutability": "view",
      "type": "function"
    },
    {
      "inputs": [
        {
          "internalType": "address",
          "name": "",
          "type": "address"
        }
      ],
      "name": "isOwner",
      "outputs": [
        {
          "internalType": "bool",
          "name": "",
          "type": "bool"
        }
      ],
      "stateMutability": "view",
      "type": "function"
    },
    {
      "inputs": [
        {
          "internalType": "uint256",
          "name": "",
          "type": "uint256"
        }
      ],
      "name": "owners",
      "outputs": [
        {
          "internalType": "address",
          "name": "",
          "type": "address"
        }
      ],
      "stateMutability": "view",
      "type": "function"
    },
    {
      "inputs": [],
      "name": "required",
      "outputs": [
        {
          "internalType": "uint256",
          "name": "",
          "type": "uint256"
        }
      ],
      "stateMutability": "view",
      "type": "function"
    },
    {
      "inputs": [],
      "name": "transactionCount",
      "outputs": [
        {
          "internalType": "uint256",
          "name": "",
          "type": "uint256"
        }
      ],
      "stateMutability": "view",
      "type": "function"
    },
    {
      "inputs": [
        {
          "internalType": "uint256",
          "name": "",
          "type": "uint256"
        }
      ],
      "name": "transactions",
      "outputs": [
        {
          "internalType": "address",
          "name": "tokenaddress",
          "type": "address"
        },
        {
          "internalType": "address",
          "name": "destination",
          "type": "address"
        },
        {
          "internalType": "uint256",
          "name": "value",
          "type": "uint256"
        },
        {
          "internalType": "bool",
          "name": "executed",
          "type": "bool"
        }
      ],
      "stateMutability": "view",
      "type": "function"
    },
    {
      "stateMutability": "payable",
      "type": "receive"
    },
    {
      "inputs": [
        {
          "internalType": "address",
          "name": "owner",
          "type": "address"
        }
      ],
      "name": "addOwner",
      "outputs": [],
      "stateMutability": "nonpayable",
      "type": "function"
    },
    {
      "inputs": [
        {
          "internalType": "address",
          "name": "owner",
          "type": "address"
        }
      ],
      "name": "removeOwner",
      "outputs": [],
      "stateMutability": "nonpayable",
      "type": "function"
    },
    {
      "inputs": [
        {
          "internalType": "address",
          "name": "owner",
          "type": "address"
        },
        {
          "internalType": "address",
          "name": "newOwner",
          "type": "address"
        }
      ],
      "name": "replaceOwner",
      "outputs": [],
      "stateMutability": "nonpayable",
      "type": "function"
    },
    {
      "inputs": [
        {
          "internalType": "uint256",
          "name": "_required",
          "type": "uint256"
        }
      ],
      "name": "changeRequirement",
      "outputs": [],
      "stateMutability": "nonpayable",
      "type": "function"
    },
    {
      "inputs": [
        {
          "internalType": "address",
          "name": "destination",
          "type": "address"
        },
        {
          "internalType": "uint256",
          "name": "value",
          "type": "uint256"
        }
      ],
      "name": "submitTransaction",
      "outputs": [
        {
          "internalType": "uint256",
          "name": "transactionId",
          "type": "uint256"
        }
      ],
      "stateMutability": "nonpayable",
      "type": "function"
    },
    {
      "inputs": [
        {
          "internalType": "address",
          "name": "tokenaddress",
          "type": "address"
        },
        {
          "internalType": "address",
          "name": "destination",
          "type": "address"
        },
        {
          "internalType": "uint256",
          "name": "value",
          "type": "uint256"
        }
      ],
      "name": "submitTokenTransaction",
      "outputs": [
        {
          "internalType": "uint256",
          "name": "transactionId",
          "type": "uint256"
        }
      ],
      "stateMutability": "nonpayable",
      "type": "function"
    },
    {
      "inputs": [
        {
          "internalType": "uint256",
          "name": "transactionId",
          "type": "uint256"
        }
      ],
      "name": "confirmTransaction",
      "outputs": [],
      "stateMutability": "nonpayable",
      "type": "function"
    },
    {
      "inputs": [
        {
          "internalType": "uint256",
          "name": "transactionId",
          "type": "uint256"
        }
      ],
      "name": "revokeConfirmation",
      "outputs": [],
      "stateMutability": "nonpayable",
      "type": "function"
    },
    {
      "inputs": [
        {
          "internalType": "uint256",
          "name": "transactionId",
          "type": "uint256"
        }
      ],
      "name": "executeTransaction",
      "outputs": [],
      "stateMutability": "nonpayable",
      "type": "function"
    },
    {
      "inputs": [
        {
          "internalType": "uint256",
          "name": "transactionId",
          "type": "uint256"
        }
      ],
      "name": "isConfirmed",
      "outputs": [
        {
          "internalType": "bool",
          "name": "",
          "type": "bool"
        }
      ],
      "stateMutability": "view",
      "type": "function"
    },
    {
      "inputs": [
        {
          "internalType": "uint256",
          "name": "transactionId",
          "type": "uint256"
        }
      ],
      "name": "isExecuted",
      "outputs": [
        {
          "internalType": "bool",
          "name": "",
          "type": "bool"
        }
      ],
      "stateMutability": "view",
      "type": "function"
    },
    {
      "inputs": [
        {
          "internalType": "uint256",
          "name": "transactionId",
          "type": "uint256"
        }
      ],
      "name": "getConfirmationCount",
      "outputs": [
        {
          "internalType": "uint256",
          "name": "count",
          "type": "uint256"
        }
      ],
      "stateMutability": "view",
      "type": "function"
    },
    {
      "inputs": [
        {
          "internalType": "bool",
          "name": "pending",
          "type": "bool"
        },
        {
          "internalType": "bool",
          "name": "executed",
          "type": "bool"
        }
      ],
      "name": "getTransactionCount",
      "outputs": [
        {
          "internalType": "uint256",
          "name": "count",
          "type": "uint256"
        }
      ],
      "stateMutability": "view",
      "type": "function"
    },
    {
      "inputs": [],
      "name": "getOwners",
      "outputs": [
        {
          "internalType": "address[]",
          "name": "",
          "type": "address[]"
        }
      ],
      "stateMutability": "view",
      "type": "function"
    },
    {
      "inputs": [
        {
          "internalType": "uint256",
          "name": "transactionId",
          "type": "uint256"
        }
      ],
      "name": "getConfirmations",
      "outputs": [
        {
          "internalType": "address[]",
          "name": "_confirmations",
          "type": "address[]"
        }
      ],
      "stateMutability": "view",
      "type": "function"
    },
    {
      "inputs": [
        {
          "internalType": "uint256",
          "name": "from",
          "type": "uint256"
        },
        {
          "internalType": "uint256",
          "name": "to",
          "type": "uint256"
        },
        {
          "internalType": "bool",
          "name": "pending",
          "type": "bool"
        },
        {
          "internalType": "bool",
          "name": "executed",
          "type": "bool"
        }
      ],
      "name": "getTransactionIds",
      "outputs": [
        {
          "internalType": "uint256[]",
          "name": "_transactionIds",
          "type": "uint256[]"
        }
      ],
      "stateMutability": "view",
      "type": "function"
    }
  ],
  "bytecode": "0x608060405260036000553480156200001657600080fd5b5060405162001c5238038062001c52833981016040819052620000399162000228565b81518160005482111580156200004f5750818111155b80156200005b57508015155b80156200006757508115155b6200007157600080fd5b60005b845181101562000167576003600086838151811062000097576200009762000333565b6020908102919091018101516001600160a01b031682528101919091526040016000205460ff16158015620000fb575060006001600160a01b0316858281518110620000e757620000e762000333565b60200260200101516001600160a01b031614155b6200010557600080fd5b60016003600087848151811062000120576200012062000333565b6020908102919091018101516001600160a01b03168252810191909152604001600020805460ff1916911515919091179055806200015e8162000309565b91505062000074565b5083516200017d9060049060208701906200018a565b505050600555506200035f565b828054828255906000526020600020908101928215620001e2579160200282015b82811115620001e257825182546001600160a01b0319166001600160a01b03909116178255602090920191600190910190620001ab565b50620001f0929150620001f4565b5090565b5b80821115620001f05760008155600101620001f5565b80516001600160a01b03811681146200022357600080fd5b919050565b600080604083850312156200023c57600080fd5b82516001600160401b03808211156200025457600080fd5b818501915085601f8301126200026957600080fd5b815160208282111562000280576200028062000349565b8160051b604051601f19603f83011681018181108682111715620002a857620002a862000349565b604052838152828101945085830182870184018b1015620002c857600080fd5b600096505b84871015620002f657620002e1816200020b565b865260019690960195948301948301620002cd565b5097909101519698969750505050505050565b60006000198214156200032c57634e487b7160e01b600052601160045260246000fd5b5060010190565b634e487b7160e01b600052603260045260246000fd5b634e487b7160e01b600052604160045260246000fd5b6118e3806200036f6000396000f3fe6080604052600436106101445760003560e01c80639ace38c2116100b6578063ba51a6df1161006f578063ba51a6df1461048b578063c01a8c84146104ab578063d74f8edd146104cb578063dc8452cd146104e1578063e20056e6146104f7578063ee22610b1461051757600080fd5b80639ace38c214610365578063a0e67e2b146103e6578063a8abe69a14610408578063b4b1446714610435578063b5dc40c314610455578063b77bf6001461047557600080fd5b80633411c81c116101085780633411c81c1461027757806354741525146102b25780637065cb48146102d257806376a6bf52146102f2578063784547a7146103255780638b51d13f1461034557600080fd5b8063025e7c271461018c578063173825d9146101c95780631d43b653146101e957806320ea8d86146102175780632f54bf6e1461023757600080fd5b366101875734156101855760405134815233907fe1fffcc4923d04b559f4d29a8bfc6cda04eb5b0d3c460751c2402c5c5cc9109c9060200160405180910390a25b005b600080fd5b34801561019857600080fd5b506101ac6101a7366004611705565b610537565b6040516001600160a01b0390911681526020015b60405180910390f35b3480156101d557600080fd5b506101856101e43660046115f4565b610561565b3480156101f557600080fd5b50610209610204366004611685565b6106f8565b6040519081526020016101c0565b34801561022357600080fd5b50610185610232366004611705565b61072b565b34801561024357600080fd5b506102676102523660046115f4565b60036020526000908152604090205460ff1681565b60405190151581526020016101c0565b34801561028357600080fd5b5061026761029236600461171e565b600260209081526000928352604080842090915290825290205460ff1681565b3480156102be57600080fd5b506102096102cd3660046116cc565b6107e1565b3480156102de57600080fd5b506101856102ed3660046115f4565b610857565b3480156102fe57600080fd5b5061026761030d366004611705565b60009081526001602052604090206003015460ff1690565b34801561033157600080fd5b50610267610340366004611705565b610971565b34801561035157600080fd5b50610209610360366004611705565b610a14565b34801561037157600080fd5b506103b9610380366004611705565b600160208190526000918252604090912080549181015460028201546003909201546001600160a01b0393841693909116919060ff1684565b604080516001600160a01b03958616815294909316602085015291830152151560608201526080016101c0565b3480156103f257600080fd5b506103fb610a94565b6040516101c0919061178b565b34801561041457600080fd5b50610428610423366004611741565b610af6565b6040516101c091906117d8565b34801561044157600080fd5b50610209610450366004611649565b610c8e565b34801561046157600080fd5b506103fb610470366004611705565b610ccb565b34801561048157600080fd5b5061020960065481565b34801561049757600080fd5b506101856104a6366004611705565b610ea3565b3480156104b757600080fd5b506101856104c6366004611705565b610f22565b3480156104d757600080fd5b5061020960005481565b3480156104ed57600080fd5b5061020960055481565b34801561050357600080fd5b50610185610512366004611616565b610feb565b34801561052357600080fd5b50610185610532366004611705565b61117e565b6004818154811061054757600080fd5b6000918252602090912001546001600160a01b0316905081565b33301461056d57600080fd5b6001600160a01b038116600090815260036020526040902054819060ff1661059457600080fd5b6001600160a01b0382166000908152600360205260408120805460ff191690555b6004546105c490600190611828565b81101561069457826001600160a01b0316600482815481106105e8576105e8611870565b6000918252602090912001546001600160a01b03161415610682576004805461061390600190611828565b8154811061062357610623611870565b600091825260209091200154600480546001600160a01b03909216918390811061064f5761064f611870565b9060005260206000200160006101000a8154816001600160a01b0302191690836001600160a01b03160217905550610694565b8061068c8161183f565b9150506105b5565b506004546106a490600190611828565b60055411156106c0576004546106c0906104a690600190611828565b6040516001600160a01b038316907f8001553a916ef2f495d26a907cc54d96ed840d7bda71e73194bf5a9df7a76b9090600090a25050565b3360008181526003602052604081205490919060ff1661071757600080fd5b6107218484611375565b91505b5092915050565b3360008181526003602052604090205460ff1661074757600080fd5b60008281526002602090815260408083203380855292529091205483919060ff1661077157600080fd5b600084815260016020526040902060030154849060ff161561079257600080fd5b6000858152600260209081526040808320338085529252808320805460ff191690555187927ff6a317157440607f36269043eb55f1287a5a19ba2216afeab88cd46cbcfb88e991a35050505050565b6000805b6006548110156107245783801561080e575060008181526001602052604090206003015460ff16155b806108325750828015610832575060008181526001602052604090206003015460ff165b1561084557610842600183611810565b91505b8061084f8161183f565b9150506107e5565b33301461086357600080fd5b6001600160a01b038116600090815260036020526040902054819060ff161561088b57600080fd5b816001600160a01b03811661089f57600080fd5b6004546108ad906001611810565b60055460005482111580156108c25750818111155b80156108cd57508015155b80156108d857508115155b6108e157600080fd5b6001600160a01b038516600081815260036020526040808220805460ff1916600190811790915560048054918201815583527f8a35acfbc15ff81a39ae7d344fd709f28e8600b4aa8c65c6b64bfe7fe36bd19b0180546001600160a01b03191684179055517ff39e6e1eb0edcf53c221607b54b00cd28f3196fed0a24994dc308b8f611b682d9190a25050505050565b600080805b6004548110156109f257600084815260026020526040812060048054919291849081106109a5576109a5611870565b60009182526020808320909101546001600160a01b0316835282019290925260400190205460ff16156109e0576109dd600183611810565b91505b806109ea8161183f565b915050610976565b506005548110610a055750600192915050565b50600092915050565b50919050565b6000805b600454811015610a0e5760008381526002602052604081206004805491929184908110610a4757610a47611870565b60009182526020808320909101546001600160a01b0316835282019290925260400190205460ff1615610a8257610a7f600183611810565b91505b80610a8c8161183f565b915050610a18565b60606004805480602002602001604051908101604052809291908181526020018280548015610aec57602002820191906000526020600020905b81546001600160a01b03168152600190910190602001808311610ace575b5050505050905090565b6060600060065467ffffffffffffffff811115610b1557610b15611886565b604051908082528060200260200182016040528015610b3e578160200160208202803683370190505b5090506000805b600654811015610bd557858015610b6e575060008181526001602052604090206003015460ff16155b80610b925750848015610b92575060008181526001602052604090206003015460ff165b15610bc35780838381518110610baa57610baa611870565b6020908102919091010152610bc0600183611810565b91505b80610bcd8161183f565b915050610b45565b610bdf8888611828565b67ffffffffffffffff811115610bf757610bf7611886565b604051908082528060200260200182016040528015610c20578160200160208202803683370190505b5093508790505b86811015610c8357828181518110610c4157610c41611870565b6020026020010151848983610c569190611828565b81518110610c6657610c66611870565b602090810291909101015280610c7b8161183f565b915050610c27565b505050949350505050565b3360008181526003602052604081205490919060ff16610cad57600080fd5b610cb885858561145d565b9150610cc382610f22565b509392505050565b60045460609060009067ffffffffffffffff811115610cec57610cec611886565b604051908082528060200260200182016040528015610d15578160200160208202803683370190505b5090506000805b600454811015610df35760008581526002602052604081206004805491929184908110610d4b57610d4b611870565b60009182526020808320909101546001600160a01b0316835282019290925260400190205460ff1615610de15760048181548110610d8b57610d8b611870565b9060005260206000200160009054906101000a90046001600160a01b0316838381518110610dbb57610dbb611870565b6001600160a01b0390921660209283029190910190910152610dde600183611810565b91505b80610deb8161183f565b915050610d1c565b8167ffffffffffffffff811115610e0c57610e0c611886565b604051908082528060200260200182016040528015610e35578160200160208202803683370190505b509350600090505b81811015610e9b57828181518110610e5757610e57611870565b6020026020010151848281518110610e7157610e71611870565b6001600160a01b039092166020928302919091019091015280610e938161183f565b915050610e3d565b505050919050565b333014610eaf57600080fd5b60045460005482908211801590610ec65750818111155b8015610ed157508015155b8015610edc57508115155b610ee557600080fd5b60058390556040518381527fa3f1ee9126a074d9326c682f561767f710e927faa811f7a99829d49dc421797a9060200160405180910390a1505050565b3360008181526003602052604090205460ff16610f3e57600080fd5b6000828152600160208190526040909120015482906001600160a01b0316610f6557600080fd5b60008381526002602090815260408083203380855292529091205484919060ff1615610f9057600080fd5b6000858152600260209081526040808320338085529252808320805460ff191660011790555187927f4a504a94899432a9846e1aa406dceb1bcfd538bb839071d49d1e5e23f5be30ef91a3610fe48561117e565b5050505050565b333014610ff757600080fd5b6001600160a01b038216600090815260036020526040902054829060ff1661101e57600080fd5b6001600160a01b038216600090815260036020526040902054829060ff161561104657600080fd5b60005b6004548110156110e457846001600160a01b03166004828154811061107057611070611870565b6000918252602090912001546001600160a01b031614156110d257836004828154811061109f5761109f611870565b9060005260206000200160006101000a8154816001600160a01b0302191690836001600160a01b031602179055506110e4565b806110dc8161183f565b915050611049565b506001600160a01b03808516600081815260036020526040808220805460ff1990811690915593871682528082208054909416600117909355915190917f8001553a916ef2f495d26a907cc54d96ed840d7bda71e73194bf5a9df7a76b9091a26040516001600160a01b038416907ff39e6e1eb0edcf53c221607b54b00cd28f3196fed0a24994dc308b8f611b682d90600090a250505050565b3360008181526003602052604090205460ff1661119a57600080fd5b60008281526002602090815260408083203380855292529091205483919060ff166111c457600080fd5b600084815260016020526040902060030154849060ff16156111e557600080fd5b6111ee85610971565b15610fe457600085815260016020526040902080546001600160a01b0316156112c55760038101805460ff1916600190811790915581015460028201546040516000926001600160a01b03169180156108fc029184818181858888f19350505050905080156112875760405187907f33e13ecb54c3076d8e8bb8c2881800a4d972b792045ffae98fdf46df365fed7590600090a26112bf565b60405187907f526441bb6c1aba3c9a4a6ca1d6545da9c2333c8c48343ef398eb858d72b7923690600090a260038201805460ff191690555b5061136d565b8054600182015460028301546000926112ec926001600160a01b0391821692911690611548565b905080156113335760038201805460ff1916600117905560405187907f33e13ecb54c3076d8e8bb8c2881800a4d972b792045ffae98fdf46df365fed7590600090a261136b565b60405187907f526441bb6c1aba3c9a4a6ca1d6545da9c2333c8c48343ef398eb858d72b7923690600090a260038201805460ff191690555b505b505050505050565b6000826001600160a01b03811661138b57600080fd5b600680546040805160808101825260008082526001600160a01b0389811660208085019182528486018b815260608601858152888652600192839052968520955186549085166001600160a01b0319918216178755925186830180549190951693169290921790925551600284015592516003909201805492151560ff19909316929092179091558354929550909291611426908490611810565b909155505060405182907fc0ba8fe4b176c1714197d43b9cc6bcf797a4a7461c5fe8d0ef6e184ae7601e5190600090a25092915050565b6000826001600160a01b03811661147357600080fd5b60068054604080516080810182526001600160a01b03808a16825288811660208084019182528385018a8152600060608601818152888252600193849052968120955186549086166001600160a01b031991821617875593518684018054919096169416939093179093559151600284015592516003909201805492151560ff199093169290921790915583549295509291611510908490611810565b909155505060405182907fc0ba8fe4b176c1714197d43b9cc6bcf797a4a7461c5fe8d0ef6e184ae7601e5190600090a2509392505050565b60405163a9059cbb60e01b81526001600160a01b03838116600483015260248201839052600091859182169063a9059cbb90604401602060405180830381600087803b15801561159757600080fd5b505af11580156115ab573d6000803e3d6000fd5b505050506040513d601f19601f820116820180604052508101906115cf91906116af565b95945050505050565b80356001600160a01b03811681146115ef57600080fd5b919050565b60006020828403121561160657600080fd5b61160f826115d8565b9392505050565b6000806040838503121561162957600080fd5b611632836115d8565b9150611640602084016115d8565b90509250929050565b60008060006060848603121561165e57600080fd5b611667846115d8565b9250611675602085016115d8565b9150604084013590509250925092565b6000806040838503121561169857600080fd5b6116a1836115d8565b946020939093013593505050565b6000602082840312156116c157600080fd5b815161160f8161189c565b600080604083850312156116df57600080fd5b82356116ea8161189c565b915060208301356116fa8161189c565b809150509250929050565b60006020828403121561171757600080fd5b5035919050565b6000806040838503121561173157600080fd5b82359150611640602084016115d8565b6000806000806080858703121561175757600080fd5b843593506020850135925060408501356117708161189c565b915060608501356117808161189c565b939692955090935050565b6020808252825182820181905260009190848201906040850190845b818110156117cc5783516001600160a01b0316835292840192918401916001016117a7565b50909695505050505050565b6020808252825182820181905260009190848201906040850190845b818110156117cc578351835292840192918401916001016117f4565b600082198211156118235761182361185a565b500190565b60008282101561183a5761183a61185a565b500390565b60006000198214156118535761185361185a565b5060010190565b634e487b7160e01b600052601160045260246000fd5b634e487b7160e01b600052603260045260246000fd5b634e487b7160e01b600052604160045260246000fd5b80151581146118aa57600080fd5b5056fea26469706673582212201e4b986c1dc52b4786a7d4532561e879cc35278820cb415ba8a5b6cd895facf364736f6c63430008070033",
  "immutableReferences": {},
  "source": "pragma solidity ^0.8.7;\r\n// SPDX-License-Identifier: MIT\r\n// Barnaby Pawelczak prototype all rights reserved\r\nabstract contract  ERC20Interface {\r\n   function  totalSupply() virtual public view returns (uint);\r\n function balanceOf(address tokenOwner)virtual public view returns (uint balance);\r\n function allowance(address tokenOwner, address spender)virtual public view returns (uint remaining);\r\n function transfer(address to, uint tokens)virtual public returns (bool success);\r\n function approve(address spender, uint tokens)virtual public returns (bool success);\r\n function transferFrom(address from, address to, uint tokens)virtual public returns (bool success);\r\n\r\n    event Transfer(address indexed from, address indexed to, uint tokens);\r\n    event Approval(address indexed tokenOwner, address indexed spender, uint tokens);\r\n}\r\n\r\n/// @title Multisignature wallet - Allows multiple parties to agree on transactions before execution.\r\n/// @author Stefan George - <stefan.george@consensys.net>\r\ncontract MultiSigTokenWallet {\r\n\r\n    /*\r\n     *  Events\r\n     */\r\n    event Confirmation(address indexed sender, uint indexed transactionId);\r\n    event Revocation(address indexed sender, uint indexed transactionId);\r\n    event Submission(uint indexed transactionId);\r\n    event Execution(uint indexed transactionId);\r\n    event ExecutionFailure(uint indexed transactionId);\r\n    event Deposit(address indexed sender, uint value);\r\n    event OwnerAddition(address indexed owner);\r\n    event OwnerRemoval(address indexed owner);\r\n    event RequirementChange(uint required);\r\n\r\n    /*\r\n     *  View \r\n     */\r\n    uint public MAX_OWNER_COUNT = 3;\r\n\r\n    /*\r\n     *  Storage\r\n     */\r\n    mapping (uint => Transaction) public transactions;\r\n    \r\n    mapping (uint => mapping (address => bool)) public confirmations;\r\n    mapping (address => bool) public isOwner;\r\n    address[] public owners;\r\n    uint public required;\r\n    uint public transactionCount;\r\n\r\n    struct Transaction {\r\n        address tokenaddress;\r\n        address destination;\r\n        uint value;\r\n        bool executed;\r\n    }\r\n\r\n    /*\r\n     *  Modifiers\r\n     */\r\n    modifier onlyWallet() {\r\n        require(msg.sender == address(this));\r\n        _;\r\n    }\r\n\r\n    modifier ownerDoesNotExist(address owner) {\r\n        require(!isOwner[owner]);\r\n        _;\r\n    }\r\n\r\n    modifier ownerExists(address owner) {\r\n        require(isOwner[owner]);\r\n        _;\r\n    }\r\n\r\n    modifier transactionExists(uint transactionId) {\r\n        require(transactions[transactionId].destination != address(0));\r\n        _;\r\n    }\r\n\r\n    modifier confirmed(uint transactionId, address owner) {\r\n        require(confirmations[transactionId][owner]);\r\n        _;\r\n    }\r\n\r\n    modifier notConfirmed(uint transactionId, address owner) {\r\n        require(!confirmations[transactionId][owner]);\r\n        _;\r\n    }\r\n\r\n    modifier notExecuted(uint transactionId) {\r\n        require(!transactions[transactionId].executed);\r\n        _;\r\n    }\r\n\r\n    modifier notNull(address _address) {\r\n        require(_address != address(0));\r\n        _;\r\n    }\r\n\r\n    modifier validRequirement(uint ownerCount, uint _required) {\r\n        require(ownerCount <= MAX_OWNER_COUNT\r\n            && _required <= ownerCount\r\n            && _required != 0\r\n            && ownerCount != 0);\r\n        _;\r\n    }\r\n\r\n    /// @dev receive function allows to deposit ether.\r\n   receive() external payable\r\n    {\r\n        if (msg.value > 0)\r\n            emit Deposit(msg.sender, msg.value);\r\n    }\r\n\r\n    /*\r\n     * Public functions\r\n     */\r\n    /// @dev Contract constructor sets initial owners and required number of confirmations.\r\n    /// @param _owners List of initial owners.\r\n    /// @param _required Number of required confirmations.\r\n    constructor(address[] memory _owners,uint _required) \r\n        validRequirement(_owners.length, _required)\r\n    {\r\n        for (uint i=0; i<_owners.length; i++) {\r\n            require(!isOwner[_owners[i]] && _owners[i] != address(0));\r\n            isOwner[_owners[i]] = true;\r\n        }\r\n        owners = _owners;\r\n        required = _required;\r\n    }\r\n\r\n    /// @dev Allows to add a new owner. Transaction has to be sent by wallet.\r\n    /// @param owner Address of new owner.\r\n    function addOwner(address owner)\r\n        public\r\n        onlyWallet\r\n        ownerDoesNotExist(owner)\r\n        notNull(owner)\r\n        validRequirement(owners.length + 1, required)\r\n    {\r\n        isOwner[owner] = true;\r\n        owners.push(owner);\r\n        emit OwnerAddition(owner);\r\n    }\r\n\r\n    /// @dev Allows to remove an owner. Transaction has to be sent by wallet.\r\n    /// @param owner Address of owner.\r\n    // !!!!!!!!!!!!!!!!!!!\r\n    // this function should be removed in near future or debated in organization before each deployment\r\n    function removeOwner(address owner)\r\n        public\r\n        onlyWallet\r\n        ownerExists(owner)\r\n    {\r\n        isOwner[owner] = false;\r\n        for (uint i=0; i<owners.length - 1; i++)\r\n            if (owners[i] == owner) {\r\n                owners[i] = owners[owners.length - 1];\r\n                break;\r\n            }\r\n        if (required > owners.length-1)\r\n            changeRequirement(owners.length-1);\r\n        emit OwnerRemoval(owner);\r\n    }\r\n\r\n    /// @dev Allows to replace an owner with a new owner. Transaction has to be sent by wallet.\r\n    /// @param owner Address of owner to be replaced.\r\n    /// @param newOwner Address of new owner.\r\n    function replaceOwner(address owner, address newOwner)\r\n        public\r\n        onlyWallet\r\n        ownerExists(owner)\r\n        ownerDoesNotExist(newOwner)\r\n    {\r\n        for (uint i=0; i<owners.length; i++)\r\n            if (owners[i] == owner) {\r\n                owners[i] = newOwner;\r\n                break;\r\n            }\r\n        isOwner[owner] = false;\r\n        isOwner[newOwner] = true;\r\n        emit OwnerRemoval(owner);\r\n        emit OwnerAddition(newOwner);\r\n    }\r\n\r\n    /// @dev Allows to change the number of required confirmations. Transaction has to be sent by wallet.\r\n    /// @param _required Number of required confirmations.\r\n    function changeRequirement(uint _required)\r\n        public\r\n        onlyWallet\r\n        validRequirement(owners.length, _required)\r\n    {\r\n        required = _required;\r\n        emit RequirementChange(_required);\r\n    }\r\n\r\n    /// @dev Allows an owner to submit and confirm a transaction.\r\n    /// @param destination Transaction target address.\r\n    /// @param value Transaction ether value.\r\n    /// xD Returns transaction ID.\r\n    function submitTransaction(address destination, uint value)\r\n        public\r\n        ownerExists(msg.sender)\r\n        returns (uint transactionId)\r\n    {\r\n        transactionId = addTransaction(destination, value);\r\n        return transactionId;\r\n    }\r\n    \r\n    function submitTokenTransaction(address tokenaddress,address destination, uint value)\r\n        public\r\n        ownerExists(msg.sender)\r\n        returns (uint transactionId)\r\n    {\r\n        transactionId = addTokenTransaction(tokenaddress, destination, value);\r\n        confirmTransaction(transactionId);\r\n        return transactionId;\r\n    }\r\n\r\n\r\n    /// @dev Allows an owner to confirm a transaction.\r\n    /// @param transactionId Transaction ID.\r\n    function confirmTransaction(uint transactionId)\r\n        public\r\n        ownerExists(msg.sender)\r\n        transactionExists(transactionId)\r\n        notConfirmed(transactionId, msg.sender)\r\n    {\r\n        confirmations[transactionId][msg.sender] = true;\r\n        emit Confirmation(msg.sender, transactionId);\r\n        executeTransaction(transactionId);\r\n    }\r\n    \r\n    \r\n    /// @dev Allows an owner to revoke a confirmation for a transaction.\r\n    /// @param transactionId Transaction ID.\r\n    function revokeConfirmation(uint transactionId)\r\n        public\r\n        ownerExists(msg.sender)\r\n        confirmed(transactionId, msg.sender)\r\n        notExecuted(transactionId)\r\n    {\r\n        confirmations[transactionId][msg.sender] = false;\r\n        emit Revocation(msg.sender, transactionId);\r\n    }\r\n\r\n    /// @dev Allows anyone to execute a confirmed transaction.\r\n    /// @param transactionId Transaction ID.\r\n    function executeTransaction(uint transactionId)\r\n        public\r\n        ownerExists(msg.sender)\r\n        confirmed(transactionId, msg.sender)\r\n        notExecuted(transactionId)\r\n    {\r\n        if (isConfirmed(transactionId)) \r\n            {\r\n            Transaction storage txn = transactions[transactionId];\r\n           // uint valuoftransaction =txn.value;\r\n            if(txn.tokenaddress != address(0))\r\n                {\r\n                //beneficiary.send(address(this).balance);\r\n                txn.executed = true;\r\n                bool sent = payable(txn.destination).send(txn.value);\r\n                        if (sent)\r\n                        emit Execution(transactionId);\r\n                        else    {\r\n                            emit ExecutionFailure(transactionId);\r\n                            txn.executed = false;\r\n                                }\r\n\r\n                } \r\n                 else \r\n                 {\r\n                 bool tokenSendt = sendTokenAway(txn.tokenaddress,txn.destination,txn.value);\r\n                 if(tokenSendt){\r\n                 txn.executed = true;\r\n                 emit Execution(transactionId);\r\n                    } else  {\r\n                    emit ExecutionFailure(transactionId);\r\n                    txn.executed = false;\r\n                            }\r\n                 }\r\n            }\r\n    }\r\n\r\n    // call has been separated into its own function in order to take advantage\r\n    // of the Solidity's code generator to produce a loop that copies tx.data into memory.\r\n    /// @dev Returns the confirmation status of a transaction.\r\n    /// @param transactionId Transaction ID.\r\n    /// @return Confirmation status.\r\n    function isConfirmed(uint transactionId)\r\n        public\r\n        view\r\n        returns (bool)\r\n    {\r\n        uint count = 0;\r\n        for (uint i=0; i<owners.length; i++) {\r\n            if (confirmations[transactionId][owners[i]])\r\n                count += 1;\r\n        }\r\n            if (count >= required)\r\n                { return true;} \r\n                else { return false; }\r\n       \r\n    }\r\n\r\n    function isExecuted(uint transactionId)\r\n        public\r\n        view\r\n        returns (bool)\r\n    {\r\n        return transactions[transactionId].executed;\r\n     }\r\n\r\n    /*\r\n     * Internal functions\r\n     */\r\n    /// @dev Adds a new transaction to the transaction mapping, if transaction does not exist yet.\r\n    /// @param destination Transaction target address.\r\n    /// @param value Transaction ether value.\r\n    /// xD return Returns transaction ID.\r\n    function addTransaction(address destination, uint value)\r\n        internal\r\n        notNull(destination)\r\n        returns (uint transactionId)\r\n    {\r\n        transactionId = transactionCount;\r\n        transactions[transactionId] = Transaction({\r\n            tokenaddress : address(0),\r\n            destination: destination,\r\n            value: value,\r\n            executed: false\r\n        });\r\n        transactionCount += 1;\r\n        emit Submission(transactionId);\r\n    }\r\n    \r\n    //addTokenTransaction(tokenaddress, destination, value);\r\n      function addTokenTransaction(address tokenaddress,address destination, uint value)\r\n        internal\r\n        notNull(destination)\r\n        returns (uint transactionId)\r\n    {\r\n        transactionId = transactionCount;\r\n        transactions[transactionId] = Transaction({\r\n            tokenaddress : tokenaddress,\r\n            destination: destination,\r\n            value: value,\r\n            executed: false\r\n        });\r\n        transactionCount += 1;\r\n        emit Submission(transactionId);\r\n    }\r\n    \r\n\r\n    /*\r\n     * Web3 call functions\r\n     */\r\n    /// @dev Returns number of confirmations of a transaction.\r\n    /// @param transactionId Transaction ID.\r\n    /// @return count Number of confirmations.\r\n    function getConfirmationCount(uint transactionId)\r\n        public\r\n        view\r\n        returns (uint count)\r\n    {\r\n        for (uint i=0; i<owners.length; i++)\r\n            if (confirmations[transactionId][owners[i]])\r\n                count += 1;\r\n                return count;\r\n    }\r\n\r\n    /// @dev Returns total number of transactions after filers are applied.\r\n    /// @param pending Include pending transactions.\r\n    /// @param executed Include executed transactions.\r\n    /// @return count Total number of transactions after filters are applied.\r\n    function getTransactionCount(bool pending, bool executed)\r\n        public\r\n        view\r\n        returns (uint count)\r\n    {\r\n        for (uint i=0; i<transactionCount; i++)\r\n            if (   pending && !transactions[i].executed\r\n                || executed && transactions[i].executed)\r\n                count += 1;\r\n                \r\n                return count;\r\n    }\r\n\r\n    /// @dev Returns list of owners.\r\n    /// @return List of owner addresses.\r\n    function getOwners()\r\n        public\r\n        view\r\n        returns (address[] memory)\r\n    {\r\n        return owners;\r\n    }\r\n\r\n    /// @dev Returns array with owner addresses, which confirmed transaction.\r\n    /// @param transactionId Transaction ID.\r\n    /// @return _confirmations -> Returns array of owner addresses.\r\n    function getConfirmations(uint transactionId)\r\n        public\r\n        view\r\n        returns ( address[] memory _confirmations)\r\n    {\r\n        address[] memory confirmationsTemp = new address[](owners.length);\r\n        uint count = 0;\r\n        uint i;\r\n        for (i=0; i<owners.length; i++)\r\n            if (confirmations[transactionId][owners[i]]) {\r\n                confirmationsTemp[count] = owners[i];\r\n                count += 1;\r\n            }\r\n        _confirmations = new address[](count);\r\n        for (i=0; i<count; i++)\r\n            _confirmations[i] = confirmationsTemp[i];\r\n        return _confirmations;\r\n    }\r\n\r\n    /// xD dev xD Returns list of transaction IDs in defined range.\r\n    /// @param from Index start position of transaction array.\r\n    /// @param to Index end position of transaction array.\r\n    /// @param pending Include pending transactions.\r\n    /// @param executed Include executed transactions.\r\n    /// xD return Returns array of transaction IDs.\r\n    function getTransactionIds(uint from, uint to, bool pending, bool executed)\r\n        public\r\n        view\r\n        returns (uint[] memory _transactionIds)\r\n    {\r\n        uint[] memory transactionIdsTemp = new uint[](transactionCount);\r\n        uint count = 0;\r\n        uint i;\r\n        for (i=0; i<transactionCount; i++)\r\n            if (   pending && !transactions[i].executed\r\n                || executed && transactions[i].executed)\r\n            {\r\n                transactionIdsTemp[count] = i;\r\n                count += 1;\r\n            }\r\n        _transactionIds = new uint[](to - from);\r\n        for (i=from; i<to; i++)\r\n            _transactionIds[i - from] = transactionIdsTemp[i];\r\n            \r\n            return _transactionIds;\r\n    }\r\n    \r\n\r\n    \r\n    \r\n\r\n\t\r\n\t function  sendTokenAway(address StandardTokenAddress, address receiver, uint tokens) internal returns (bool success)\r\n\t {\r\n\t\r\n\t\tERC20Interface TokenContract = ERC20Interface(StandardTokenAddress);\r\n\t\tsuccess = TokenContract.transfer(receiver, tokens);\r\n\t\treturn success;\r\n\r\n\t}\r\n\r\n\t\r\n}\r\n",
  "sourcePath": "C:\\Users\\48502\\Desktop\\nextrope_job\\universalTokenMultiSigWallet_v8.7\\contracts\\universalTokenMultiSigWallet.sol",
  "compiler": {
    "name": "solc",
    "version": "0.8.7+commit.e28d00a7.Emscripten.clang"
  },
  "schemaVersion": "3.4.3",
  "updatedAt": "2021-09-08T05:07:42.352Z",
  "devdoc": {
    "author": "Stefan George - <stefan.george@consensys.net>",
    "kind": "dev",
    "methods": {
      "addOwner(address)": {
        "details": "Allows to add a new owner. Transaction has to be sent by wallet.",
        "params": {
          "owner": "Address of new owner."
        }
      },
      "changeRequirement(uint256)": {
        "details": "Allows to change the number of required confirmations. Transaction has to be sent by wallet.",
        "params": {
          "_required": "Number of required confirmations."
        }
      },
      "confirmTransaction(uint256)": {
        "details": "Allows an owner to confirm a transaction.",
        "params": {
          "transactionId": "Transaction ID."
        }
      },
      "constructor": {
        "details": "Contract constructor sets initial owners and required number of confirmations.",
        "params": {
          "_owners": "List of initial owners.",
          "_required": "Number of required confirmations."
        }
      },
      "executeTransaction(uint256)": {
        "details": "Allows anyone to execute a confirmed transaction.",
        "params": {
          "transactionId": "Transaction ID."
        }
      },
      "getConfirmationCount(uint256)": {
        "details": "Returns number of confirmations of a transaction.",
        "params": {
          "transactionId": "Transaction ID."
        },
        "returns": {
          "count": "Number of confirmations."
        }
      },
      "getConfirmations(uint256)": {
        "details": "Returns array with owner addresses, which confirmed transaction.",
        "params": {
          "transactionId": "Transaction ID."
        },
        "returns": {
          "_confirmations": "-> Returns array of owner addresses."
        }
      },
      "getOwners()": {
        "details": "Returns list of owners.",
        "returns": {
          "_0": "List of owner addresses."
        }
      },
      "getTransactionCount(bool,bool)": {
        "details": "Returns total number of transactions after filers are applied.",
        "params": {
          "executed": "Include executed transactions.",
          "pending": "Include pending transactions."
        },
        "returns": {
          "count": "Total number of transactions after filters are applied."
        }
      },
      "getTransactionIds(uint256,uint256,bool,bool)": {
        "params": {
          "executed": "Include executed transactions. xD return Returns array of transaction IDs.",
          "from": "Index start position of transaction array.",
          "pending": "Include pending transactions.",
          "to": "Index end position of transaction array."
        }
      },
      "isConfirmed(uint256)": {
        "details": "Returns the confirmation status of a transaction.",
        "params": {
          "transactionId": "Transaction ID."
        },
        "returns": {
          "_0": "Confirmation status."
        }
      },
      "removeOwner(address)": {
        "details": "Allows to remove an owner. Transaction has to be sent by wallet.",
        "params": {
          "owner": "Address of owner."
        }
      },
      "replaceOwner(address,address)": {
        "details": "Allows to replace an owner with a new owner. Transaction has to be sent by wallet.",
        "params": {
          "newOwner": "Address of new owner.",
          "owner": "Address of owner to be replaced."
        }
      },
      "revokeConfirmation(uint256)": {
        "details": "Allows an owner to revoke a confirmation for a transaction.",
        "params": {
          "transactionId": "Transaction ID."
        }
      },
      "submitTransaction(address,uint256)": {
        "details": "Allows an owner to submit and confirm a transaction.",
        "params": {
          "destination": "Transaction target address.",
          "value": "Transaction ether value. xD Returns transaction ID."
        }
      }
    },
    "title": "Multisignature wallet - Allows multiple parties to agree on transactions before execution.",
    "version": 1
  },
  "userdoc": {
    "kind": "user",
    "methods": {
      "getTransactionIds(uint256,uint256,bool,bool)": {
        "notice": "xD dev xD Returns list of transaction IDs in defined range."
      }
    },
    "version": 1
  }
}